:040000000C94F50067
:100004000C94AF020C9400000C9400000C940000BB
:100014000C9400000C9400000C9400000C9400005C
:100024000C9400000C9400000C9400000C9400004C
:100034000C9400000C9400000C9400000C9400003C
:100044000C9400000C9400000C9400000C9400002C
:100054001027E80364000A000100001000011000EA
:1000640001000000000000000000DE6F4D00BC0035
:100074006F00DE004D00BC00546F204F70656E2091
:1000840074686520446F6F7220436C69636B202A27
:100094002000456E74657220796F75722049442082
:1000A40020202000256400456E74657220796F75E8
:1000B40072205061737320436F646520002A0053DB
:1000C4006F7272792C2057726F6E67205043200034
:1000D40057726F6E672049442000456E7465722024
:1000E400746865204F6C642050432000456E74652D
:1000F4007220746865204E65772050432000526555
:100104006E74657220746865204E657720504320B4
:10011400004E65772050432069732053746F7265D5
:100124006400436F6E746163742041646D696E2072
:100134000057726F6E672050432C436F6E74616377
:10014400742041646D696E200057726F6E67204998
:10015400442C436F6E746163742041646D696E2036
:100164000057656C636F6D652C2041646D696E206A
:100174000057656C636F6D652C2053747564656EF0
:1001840074200041686D656420004D6F68616D6581
:100194006420004D61686D6F75642000456E746560
:1001A400722041646D696E205061737320436F64E3
:1001B400652000456E7465722053747564656E74B1
:1001C4002049442020202000436F6E746163742012
:1001D40041646D696E0080C00A000400660002007C
:1001E4006201DA010000F894EE27ECBBF1E0FBBFFA
:1001F400EBBFE5BF8DE0A2E0BB27ED938A95E9F75D
:1002040080E094E0A0E6ED930197E9F7ECEDF1E0EE
:1002140085919591009761F0A591B5910590159000
:10022400BF01F00105900D920197E1F7FB01F0CFBA
:10023400EFE5EDBFE4E0EEBFC0E6D1E00C942201AF
:1002440000E010E0E7E0E4BBE8EFE5BBA0E152D258
:1002540027D2E5B7E260E5BFE5B7EE7FE5BF789466
:10026400EBB7E064EBBFB89A1BD2ECE7F0E0E4D361
:10027400B1D00E2F1127EAE0F0E0E017F107F1F515
:10028400E1D399247724E3E07E1620F4E3D3E7D383
:100294007394F9CFFAD341F16624E3E06E1618F5AE
:1002A400FFD1EBEAF0E0C8D388247724E3E07E169C
:1002B40038F4D0D3E1ECF0E0BFD3F1D37394F6CFAC
:1002C400F6D339F4A091600120D1A4EFB1E066D453
:1002D4000AC0E6D1E3ECF0E0AFD336D1A4E6B0E057
:1002E4005DD46394DACF09C0DBD1E4EDF0E0A4D3AC
:1002F4002BD12AD1A4E6B0E051D469C0EBE0F0E000
:10030400E017F10709F064C09DD399247724E3E052
:100314007E1620F49FD3A3D37394F9CFB6D309F4F4
:1003240050C0BED1EEEDF0E087D388247724E3E01B
:100334007E1638F48FD3E1ECF0E07ED3B0D373941F
:10034400F6CFB5D3B9F5C2D3BB247724E3E07E1648
:1003540050F480D3E1ECF0E06FD3BCD3A881EA0F72
:10036400BE2E7394F3CF9CD1E2E0F1E065D3AA24CE
:100374007724E3E07E1668F46DD3E1ECF0E05CD31F
:10038400EA2DAAE0EA02F001A881EA0FAE2E7394E6
:10039400F0CFAB1441F4E0916101F0E0A0D3A4EFFD
:1003A400B1E0FCD306C07CD1E6E2F1E045D3CCD089
:1003B400CBD006C075D1E5E3F1E03ED3C5D0C4D0BF
:1003C40006C06ED1EDE4F1E037D3BED0BDD02296A5
:1003D4004BCFFFCFA898A99AAA9AE3B3E63F29F492
:1003E4009B9BFECFE1E0089514C0EE3E29F49C9B54
:1003F400FECFE4E008950DC0EE3D29F49D9BFECFB1
:10040400E7E0089506C0EE3B21F49E9BFECFEAE0B0
:100414000895A89AA998AA9AE3B3E53F29F49B9B67
:10042400FECFE2E0089514C0ED3E29F49C9BFECF7C
:10043400E5E008950DC0ED3D29F49D9BFECFE8E075
:10044400089506C0ED3B21F49E9BFECFE0E00895A5
:10045400A89AA99AAA98E3B3E33F29F49B9BFECFF9
:10046400E3E0089514C0EB3E29F49C9BFECFE6E044
:1004740008950DC0EB3D29F49D9BFECFE9E008955E
:1004840006C0EB3B21F49E9BFECFEBE00895A2CF88
:100494001A930A938D01E199FECF1FBB0EBBE09A1C
:1004A400EDB330C062D31A2F2C813D81E199FECF88
:1004B4003FBB2EBB1DBBE29AE19A5ED326960895FC
:1004C40016D3E1E07E2EE8E0E71550F0A72DBB2718
:1004D400DFDF9E1611F4172D03C073947394F3CFCA
:1004E40010C005D3E2E07E2EE8E0E71550F0A72D1A
:1004F400BB27CEDF8E1611F4172D03C073947394AB
:10050400F3CFE12F0991199108951A931A2FC8D0A6
:10051400113019F4E5E6F1E011C0E5E7F1E08CD221
:10052400133019F4E7E8F1E009C0153019F4EEE8E6
:10053400F1E004C0173039F4E7E9F1E0FA93EA9303
:1005440080E03AD2229600C1C09AA4E6B0E026D355
:10055400C098A4E6B0E022D308950A921A92FA92BF
:100564006A937A938A939A93AA93BA93EA93FA939F
:10057400EFB7EA9395D0E0EAF1E05ED24424552443
:1005840088247724E3E07E1630F4B6D2E82DBAD27C
:100594008E2E7394F7CFA2E0B0E07ADFE815C9F5A8
:1005A4007FD0E7EBF1E048D299247724E3E07E168C
:1005B400A8F410DF4E2E5524E8EAF0E0FA93EA930B
:1005C400F2016F2F660F660B762FE3D284E0F4D12D
:1005D4002696E92D97D29E2E7394E8CF56D2A9F091
:1005E40075D2BB247724E3E07E1630F485D272D230
:1005F400E40DBE2E7394F7CFE0916001F0E03196E4
:100604006ED2A4EFB1E0CAD203C081D29DDF9CDFD9
:1006140003C07DD299DF98DFE991EFBFF991E991A9
:10062400B991A9919991899179916991F9901990C8
:10063400099018951A931A2FEBB3EF70AE2FE12F90
:10064400E07FEA2BEBBB8DE08A95F1F7DA9A8DE037
:100654008A95F1F7DA988DE08A95F1F775C0AA9337
:10066400A881E8DFE881E295E883A881E3DF85E8F3
:100674008A95F1F7219608951A930A931A2F0A81FD
:10068400E12FF0E0EE59FE4FE081E00FAE2FE7DFFF
:1006940000936601109367011981088123960895D8
:1006A400A2E039D2ACE0DBDFA1E035D2E0E0E093B8
:1006B4006701E093660108951A931A2F1A3031F0F6
:1006C400E0916801A0916601AE1750F0E0E0EA9372
:1006D400A0916701AF5FA0936701CEDF1A30A1F14B
:1006E400E0916601EF5FE0936601D89AA12FB7DF2E
:1006F400D8982AC01A931A2FEAB3E06FEABBD29AA9
:10070400D09AD19ADA98D898D99810936801E12FA1
:10071400E058E0936401E12FE054E0936501A4E123
:10072400B0E03CD2FCD1FBD1FAD1A0E283DF88EC6B
:1007340090E00197F1F7A8E292DFA4E090DFA5E84A
:100744008EDFA6E08CDFACDF19910895BA93AA93EB
:10075400269709D210E0AC85BD85E0E0F0E0ED938A
:10076400FC93EA89FB893196EA8BFB8B3197E49100
:100774002E2FE03009F40BC1E12FE03031F42532A3
:1007840011F411E001C0D2D101C1E130A1F425324C
:1007940011F4CCD1FAC012E040E000E02D3211F4A3
:1007A40001E0F4C02B3211F44BE2F0C0203211F41A
:1007B40040E2ECC002C0E23039F450E013E02033F0
:1007C40011F40068E3C003C0E33009F0DFC0203354
:1007D40010F02A3308F007C0AAE05A9F502DE22FE8
:1007E400E0535E0FD3C0E22FE33639F4A6D1E88993
:1007F400F989A481AA93A7D1C8C0E33729F49DD16C
:10080400A8D101D11E2F07C0E03749F496D1A1D158
:1008140006D11E2F086002600F7730E03AC0E4363C
:1008240011F0E93611F4046002C0E53731F4E4E56F
:10083400F0E0EE83FF8315E00CC0E83511F40860A6
:1008440003C0E83709F0A1C0EEE5F0E0EE83FF83D2
:1008540014E002FF15C071D1A889B9891496ED91ED
:10086400FD91EA87FB87AB85AA2322F48AD1EA8724
:10087400FB874DE2403011F01F5F01C00B7F09C0C0
:100884005CD1A889B9891496ED91FC911197EA87F6
:10089400FB8700FD10C0151770F407FF08C002FFA6
:1008A40004C00B7F242F115001C020E301C020E2BB
:1008B4003DD15150F0CF312F01FF16C0303099F0A7
:1008C40003FF06C0EE81FF812591EE83FF8305C0FF
:1008D400AE81BF812D91AE83BF8328D1503009F002
:1008E40051503150EBCF48C020E3EE81FF814DD110
:1008F400E887F987EE81FF813296EE83FF83E885EE
:10090400F985AA85BB85AE17BF0750F02F5FA88570
:10091400B985EA85FB85EA1BFB0BEA87FB87EFCFEA
:100924002A3328F003FF02C0295F01C0295D04FDBA
:1009340019C0213320F4A885B985119709F409C099
:10094400531710F000FF01C011C020E207FF0AC0D6
:1009540020E3006102FF06C00B7F4A93F4D05030BD
:1009640009F05150E3D0503009F051503150A8856E
:10097400B985129708F0B8CF00FF07C0503029F0AE
:100984005150E0E2EA93DFD0F9CF10E0EACEAC8533
:10099400BD85ED91FD91EED064960895E6D08D016C
:1009A4003C81A32F89DED801ED91FD913196FE9310
:1009B400EE93E2D025960895FF92F82E26971A9387
:1009C4000A93DE0114960024AF0DB01D8D01E0E002
:1009D400EC83ED83EE83EF83DE0118960024AF0DE4
:1009E400B01DED91FD91FA93EA931A930A93E0ED09
:1009F400F4E0FA93EA93DE011896A8DE19810881DF
:100A04002896FF900895BA93AA93A991B991EE27D5
:100A1400FF276D91662311F03196FBCF0895BA93A9
:100A2400AA93AA27BB27E991F9910590002011F018
:100A34001196FBCFFD010895FA93EA9380E0BCDFA1
:100A4400229608952297E0E0E883E98329DEE6E927
:100A5400F0E0F2CFBFDCF0E0E883F9830895E8EA40
:100A6400F0E0FA93EA93EA81FB816F2F660F660B3D
:100A7400762F8FD084E0A0DF2696E92DAAE0EA0243
:100A8400F001A881EA0F9E2E08950ADEE0E0E093CB
:100A94006001A92D15DDE0936001E0300895E82D93
:100AA400AAE0EA02F001A881EA0F8E2E0895E0E0A0
:100AB400E0936101A82D15DDE0936101F0E0319729
:100AC400A0916001B0E0EA17FB070895E9DDE0EFCB
:100AD400F0E0B2CFEB2DAAE0EA02F0010895FA9318
:100AE400EA93AB2DDFDCDCDDE5E1F1E0A5CF1A9381
:100AF4000A930A2F10E008956DDC4E2E5524E1EC84
:100B0400F0E09ACFAAE0EA02F001E40D0895C8DD0E
:100B1400ECECF1E091CFA3DDA3E0B0E03FC0A0E3B3
:100B240089DD88EC90E00197F1F708952A93AD856B
:100B3400BE85EF85F88909950895E889F989349780
:100B4400E88BF98B0895AD85BE85EF85F889099505
:100B54000895A889B9891496ED91FD91EE83FF83D8
:100B6400AE81BF8108955A934A933A932A931A9374
:100B74000A9308955D814C813B812A811981088102
:100B84000895F195E195F04008950590F491E02DD4
:100B940008957A936A93FA93EA930895109639F034
:100BA400A89580ED97E00197F1F71197C9F708959B
:00000001FF
